:020000040000FA
:100000000C945D000C9485000C9485000C94850084
:100010000C9485000C9485000C9485000C9485004C
:100020000C9485000C9485000C9485000C9485003C
:100030000C9485000C9485000C9485000C9485002C
:100040000C948C020C9485000C9485000C94850013
:100050000C9485000C9485000C9485000C9485000C
:100060000C9485000C94850000000008000201003B
:100070000003040700000000000000000000000072
:10008000250028002B0000000000240027002A0083
:10009000040404040404040402020202020203032E
:1000A0000303030301020408102040800102040836
:1000B0001020010204081020BE0311241FBECFEF40
:1000C000D8E0DEBFCDBF11E0A0E0B1E0EAE0F8E0AB
:1000D00002C005900D92AC30B107D9F721E0ACE039
:1000E000B1E001C01D92AF32B207E1F710E0CDE5FB
:1000F000D0E004C02197FE010E94FD03CC35D1075A
:10010000C9F70E94D6020C9403040C94000090E0FE
:10011000FC01EC55FF4F249180579F4FFC018491C7
:10012000882399F090E0880F991FFC01EA57FF4F50
:10013000A591B491FC01E458FF4F859194918FB73C
:10014000F894EC91E22BEC938FBF0895AF92BF929D
:10015000CF92DF92EF92FF920F931F93CF93DF9393
:100160006C017B018B01040F151FEB015E01AE18C2
:10017000BF08C017D10759F06991D601ED91FC91E4
:100180000190F081E02DC6010995892B79F7C50111
:10019000DF91CF911F910F91FF90EF90DF90CF9063
:1001A000BF90AF90089590E0FC01E859FF4F249173
:1001B000FC01EC55FF4F3491FC01E057FF4FE491F7
:1001C000EE23C9F0222339F0233001F1A8F42130C5
:1001D00019F1223029F1F0E0EE0FFF1FE458FF4F34
:1001E000A591B4918FB7F894EC91611126C0309528
:1001F0003E233C938FBF08952730A9F02830C9F0E3
:10020000243049F7809180008F7D03C08091800069
:100210008F7780938000DFCF84B58F7784BDDBCF6D
:1002200084B58F7DFBCF8091B0008F778093B00035
:10023000D2CF8091B0008F7DF9CF3E2BDACF3FB780
:10024000F8948091110190911201A0911301B09145
:10025000140126B5A89B05C02F3F19F00196A11DDA
:10026000B11D3FBFBA2FA92F982F8827BC01CD0100
:10027000620F711D811D911D42E0660F771F881F5F
:10028000991F4A95D1F70895089590E080E0089568
:10029000CF93DF93EC0160E08E810E94D30061E098
:1002A0008E810E94D30060E08E810E94D3008BE893
:1002B00091E00197F1F7DF91CF910895CF92DF920E
:1002C000EF92FF920F931F93CF93DF936C017C010A
:1002D00087E0E80EF11CD0E0C0E0062F10E0B80186
:1002E0000C2E02C0759567950A94E2F76170F701CC
:1002F00081917F010E94D3002196C430D10579F706
:10030000C601DF91CF911F910F91FF90EF90DF9089
:10031000CF900C944801CF92DF92EF92FF920F930F
:100320001F93CF93DF93EC01F62E642F8C810E94F4
:10033000D3008D818F3F19F060E00E94D3000F2D14
:1003400010E08F8584FF25C06E0187E0C80ED11CA8
:10035000F12CE12CB8010E2C02C0759567950A941A
:10036000E2F76170F60181916F010E94D300FFEF07
:10037000EF1AFF0A88E0E816F10461F7CE01DF9179
:10038000CF911F910F91FF90EF90DF90CF900C9441
:100390004801B80184E0759567958A95E1F7CE012B
:1003A0000E945E016F2DCE01DF91CF911F910F91C1
:1003B000FF90EF90DF90CF900C945E0140E0682FAB
:1003C00087E191E00C948B01CF93DF93823029F485
:1003D0009091260198609093260180932A011092B3
:1003E0002B0180E480932C0180E180932D0180E536
:1003F00080932E0180911B010E94870080911C0137
:100400008F3F11F00E94870080911D010E9487009C
:10041000C7E1D1E09E01275131408091260184FD42
:100420000AC084E090E02196281739073CF48E81B9
:100430000E948700EFCF88E090E0F5CF8BE39DE04E
:100440000197F1F760E080911B010E94D30060E00A
:1004500080911D010E94D30080911C018F3F19F0F3
:1004600060E00E94D3008091260184FD39C063E0E2
:1004700087E191E00E945E01CBE4D6E4CE010197D2
:10048000F1F763E087E191E00E945E012197F1F7C7
:1004900063E087E191E00E945E0183E592E00197CD
:1004A000F1F762E087E191E00E945E018091260110
:1004B00080620E94DE0184E0809327018CE00E942C
:1004C000DE0181E00E94DE018BE39FE10197F1F7FD
:1004D00082E08093280186E0DF91CF910C94DE01C9
:1004E00080620E94DE018BE496E40197F1F780912F
:1004F000260180620E94DE0183E592E00197F1F718
:100500008091260180620E94DE01D0CF41E00E94EE
:100510008B0181E090E008951F920F920FB60F9229
:1005200011242F933F938F939F93AF93BF93809109
:100530000D0190910E01A0910F01B0911001309129
:100540000C0123E0230F2D3758F50196A11DB11D95
:1005500020930C0180930D0190930E01A0930F0145
:10056000B09310018091110190911201A09113019B
:10057000B09114010196A11DB11D809311019093BA
:100580001201A0931301B0931401BF91AF919F91F9
:100590008F913F912F910F900FBE0F901F90189544
:1005A00026E8230F0296A11DB11DD2CFCF93DF9372
:1005B000CDB7DEB7A1970FB6F894DEBF0FBECDBFA3
:1005C000789484B5826084BD84B5816084BD85B52E
:1005D000826085BD85B5816085BD80916E0081603A
:1005E00080936E00109281008091810082608093E0
:1005F00081008091810081608093810080918000E2
:100600008160809380008091B10084608093B1000C
:100610008091B00081608093B00080917A00846006
:1006200080937A0080917A00826080937A00809132
:100630007A00816080937A0080917A00806880934C
:100640007A001092C10082E00E94E4019AE0892EB3
:10065000912CA12CB12C00E010E0E1E080912A0166
:100660008111E0E0E195F0E0E95EFE4F8489806869
:100670000E94DE01C0901501D09016010D2C000CD7
:10068000EE08FF08F7FE64C041E06DE287E191E00B
:100690000E948B0122273327A9012C193D094E09FD
:1006A0005F0919A2CE0181967C01CA01B901A50199
:1006B00094010E94DB03605DF70162937F012115C5
:1006C00031054105510589F7E114F10461F001900C
:1006D0000020E9F73197AF014E195F09B70187E1B3
:1006E00091E00E94A600809115019091160101965B
:1006F00090931601809315010E941F012B013C016C
:1007000088EEC82E83E0D82EE12CF12C0E941F0128
:100710006419750986099709683E7340810591053A
:10072000A8F3F1E0CF1AD108E108F10828EE420E53
:1007300023E0521E611C711CC114D104E104F104B8
:1007400029F70115110509F488CF0E94000085CF13
:10075000A701960119A2CE0181967C01CA01B901B7
:10076000A50194010E94DB03605DF70162937F01A4
:10077000211531054105510589F7A6CFE7E1F1E0E3
:100780001382128284E091E09183808386E08483E7
:100790008FEF858385E0868384E0878383E080878D
:1007A00082E0818781E0828713861486158616860B
:1007B00017860C94E401A1E21A2EAA1BBB1BFD01B3
:1007C0000DC0AA1FBB1FEE1FFF1FA217B307E40730
:1007D000F50720F0A21BB30BE40BF50B661F771F88
:1007E000881F991F1A9469F7609570958095909568
:1007F0009B01AC01BD01CF010895EE0FFF1F0590D5
:10080000F491E02D0994F894FFCF000000008602D7
:06081000A60045014401B1
:107E0000112484B714BE81FFF0D085E080938100F7
:107E100082E08093C00088E18093C10086E0809377
:107E2000C20080E18093C4008EE0C9D0259A86E02C
:107E300020E33CEF91E0309385002093840096BBD3
:107E4000B09BFECF1D9AA8958150A9F7CC24DD24C4
:107E500088248394B5E0AB2EA1E19A2EF3E0BF2EE7
:107E6000A2D0813461F49FD0082FAFD0023811F036
:107E7000013811F484E001C083E08DD089C08234E0
:107E800011F484E103C0853419F485E0A6D080C0E4
:107E9000853579F488D0E82EFF2485D0082F10E0AE
:107EA000102F00270E291F29000F111F8ED06801E7
:107EB0006FC0863521F484E090D080E0DECF843638
:107EC00009F040C070D06FD0082F6DD080E0C81688
:107ED00080E7D80618F4F601B7BEE895C0E0D1E017
:107EE00062D089930C17E1F7F0E0CF16F0E7DF06D8
:107EF00018F0F601B7BEE89568D007B600FCFDCFD4
:107F0000A601A0E0B1E02C9130E011968C91119780
:107F100090E0982F8827822B932B1296FA010C0160
:107F200087BEE89511244E5F5F4FF1E0A038BF0790
:107F300051F7F601A7BEE89507B600FCFDCF97BE46
:107F4000E89526C08437B1F42ED02DD0F82E2BD052
:107F50003CD0F601EF2C8F010F5F1F4F84911BD097
:107F6000EA94F801C1F70894C11CD11CFA94CF0C13
:107F7000D11C0EC0853739F428D08EE10CD085E9AC
:107F80000AD08FE07ACF813511F488E018D01DD067
:107F900080E101D065CF982F8091C00085FFFCCF94
:107FA0009093C60008958091C00087FFFCCF809118
:107FB000C00084FD01C0A8958091C6000895E0E648
:107FC000F0E098E1908380830895EDDF803219F02E
:107FD00088E0F5DFFFCF84E1DECF1F93182FE3DFCA
:107FE0001150E9F7F2DF1F91089580E0E8DFEE27F6
:047FF000FF270994CA
:027FFE00040479
:00000001FF
